{
	"data": {
		"bytecode": {
			"linkReferences": {},
			"object": "60e060405260036080818152600260a052600460c0526100229160019190610035565b5034801561002f57600080fd5b5061009a565b828054828255906000526020600020908101928215610075579160200282015b82811115610075578251829060ff16905591602001919060010190610055565b50610081929150610085565b5090565b5b808211156100815760008155600101610086565b610133806100a96000396000f3fe6080604052348015600f57600080fd5b5060043610603c5760003560e01c8063a85912d2146041578063d15ec851146062578063ff2819181460a3575b600080fd5b6050604c36600460cf565b60ab565b60405190815260200160405180910390f35b60a1606d36600460cf565b6001805480820182556000919091527fb10e2d527612073b26eecdfd717e6a320cf44b4afac2b0732d9fcbe2b7fa0cf60155565b005b605060075481565b60006001828154811060bd5760bd60e7565b90600052602060002001549050919050565b60006020828403121560e057600080fd5b5035919050565b634e487b7160e01b600052603260045260246000fdfea26469706673582212203b90424d30d96e74b31cf412c7829825a98b065c47b6e3fd1682c00e8872d49364736f6c63430008070033",
			"opcodes": "PUSH1 0xE0 PUSH1 0x40 MSTORE PUSH1 0x3 PUSH1 0x80 DUP2 DUP2 MSTORE PUSH1 0x2 PUSH1 0xA0 MSTORE PUSH1 0x4 PUSH1 0xC0 MSTORE PUSH2 0x22 SWAP2 PUSH1 0x1 SWAP2 SWAP1 PUSH2 0x35 JUMP JUMPDEST POP CALLVALUE DUP1 ISZERO PUSH2 0x2F JUMPI PUSH1 0x0 DUP1 REVERT JUMPDEST POP PUSH2 0x9A JUMP JUMPDEST DUP3 DUP1 SLOAD DUP3 DUP3 SSTORE SWAP1 PUSH1 0x0 MSTORE PUSH1 0x20 PUSH1 0x0 KECCAK256 SWAP1 DUP2 ADD SWAP3 DUP3 ISZERO PUSH2 0x75 JUMPI SWAP2 PUSH1 0x20 MUL DUP3 ADD JUMPDEST DUP3 DUP2 GT ISZERO PUSH2 0x75 JUMPI DUP3 MLOAD DUP3 SWAP1 PUSH1 0xFF AND SWAP1 SSTORE SWAP2 PUSH1 0x20 ADD SWAP2 SWAP1 PUSH1 0x1 ADD SWAP1 PUSH2 0x55 JUMP JUMPDEST POP PUSH2 0x81 SWAP3 SWAP2 POP PUSH2 0x85 JUMP JUMPDEST POP SWAP1 JUMP JUMPDEST JUMPDEST DUP1 DUP3 GT ISZERO PUSH2 0x81 JUMPI PUSH1 0x0 DUP2 SSTORE PUSH1 0x1 ADD PUSH2 0x86 JUMP JUMPDEST PUSH2 0x133 DUP1 PUSH2 0xA9 PUSH1 0x0 CODECOPY PUSH1 0x0 RETURN INVALID PUSH1 0x80 PUSH1 0x40 MSTORE CALLVALUE DUP1 ISZERO PUSH1 0xF JUMPI PUSH1 0x0 DUP1 REVERT JUMPDEST POP PUSH1 0x4 CALLDATASIZE LT PUSH1 0x3C JUMPI PUSH1 0x0 CALLDATALOAD PUSH1 0xE0 SHR DUP1 PUSH4 0xA85912D2 EQ PUSH1 0x41 JUMPI DUP1 PUSH4 0xD15EC851 EQ PUSH1 0x62 JUMPI DUP1 PUSH4 0xFF281918 EQ PUSH1 0xA3 JUMPI JUMPDEST PUSH1 0x0 DUP1 REVERT JUMPDEST PUSH1 0x50 PUSH1 0x4C CALLDATASIZE PUSH1 0x4 PUSH1 0xCF JUMP JUMPDEST PUSH1 0xAB JUMP JUMPDEST PUSH1 0x40 MLOAD SWAP1 DUP2 MSTORE PUSH1 0x20 ADD PUSH1 0x40 MLOAD DUP1 SWAP2 SUB SWAP1 RETURN JUMPDEST PUSH1 0xA1 PUSH1 0x6D CALLDATASIZE PUSH1 0x4 PUSH1 0xCF JUMP JUMPDEST PUSH1 0x1 DUP1 SLOAD DUP1 DUP3 ADD DUP3 SSTORE PUSH1 0x0 SWAP2 SWAP1 SWAP2 MSTORE PUSH32 0xB10E2D527612073B26EECDFD717E6A320CF44B4AFAC2B0732D9FCBE2B7FA0CF6 ADD SSTORE JUMP JUMPDEST STOP JUMPDEST PUSH1 0x50 PUSH1 0x7 SLOAD DUP2 JUMP JUMPDEST PUSH1 0x0 PUSH1 0x1 DUP3 DUP2 SLOAD DUP2 LT PUSH1 0xBD JUMPI PUSH1 0xBD PUSH1 0xE7 JUMP JUMPDEST SWAP1 PUSH1 0x0 MSTORE PUSH1 0x20 PUSH1 0x0 KECCAK256 ADD SLOAD SWAP1 POP SWAP2 SWAP1 POP JUMP JUMPDEST PUSH1 0x0 PUSH1 0x20 DUP3 DUP5 SUB SLT ISZERO PUSH1 0xE0 JUMPI PUSH1 0x0 DUP1 REVERT JUMPDEST POP CALLDATALOAD SWAP2 SWAP1 POP JUMP JUMPDEST PUSH4 0x4E487B71 PUSH1 0xE0 SHL PUSH1 0x0 MSTORE PUSH1 0x32 PUSH1 0x4 MSTORE PUSH1 0x24 PUSH1 0x0 REVERT INVALID LOG2 PUSH5 0x6970667358 0x22 SLT KECCAK256 EXTCODESIZE SWAP1 TIMESTAMP 0x4D ADDRESS 0xD9 PUSH15 0x74B31CF412C7829825A98B065C47B6 0xE3 REVERT AND DUP3 0xC0 0xE DUP9 PUSH19 0xD49364736F6C63430008070033000000000000 "
		},
		"gasEstimates": {
			"creation": {
				"codeDepositCost": "61400",
				"executionCost": "infinite",
				"totalCost": "infinite"
			},
			"external": {
				"addToArray(uint256)": "46548",
				"arrayvalue()": "2305",
				"getValueOfIndex(uint256)": "4543"
			}
		},
		"methodIdentifiers": {
			"addToArray(uint256)": "d15ec851",
			"arrayvalue()": "ff281918",
			"getValueOfIndex(uint256)": "a85912d2"
		}
	},
	"abi": [
		{
			"inputs": [
				{
					"internalType": "uint256",
					"name": "_value",
					"type": "uint256"
				}
			],
			"name": "addToArray",
			"outputs": [],
			"stateMutability": "nonpayable",
			"type": "function"
		},
		{
			"inputs": [],
			"name": "arrayvalue",
			"outputs": [
				{
					"internalType": "uint256",
					"name": "",
					"type": "uint256"
				}
			],
			"stateMutability": "view",
			"type": "function"
		},
		{
			"inputs": [
				{
					"internalType": "uint256",
					"name": "_index",
					"type": "uint256"
				}
			],
			"name": "getValueOfIndex",
			"outputs": [
				{
					"internalType": "uint256",
					"name": "",
					"type": "uint256"
				}
			],
			"stateMutability": "view",
			"type": "function"
		}
	]
}