{
	"data": {
		"bytecode": {
			"linkReferences": {},
			"object": "60806040526000805460ff1916905534801561001a57600080fd5b506000805461010061ff001990911617905560ca8061003a6000396000f3fe6080604052348015600f57600080fd5b506004361060325760003560e01c8063697594b4146037578063fef21f0f146048575b600080fd5b6000805461ff001916610200179055005b600054605990610100900460ff1681565b60405160649190606d565b60405180910390f35b6020810160038310608e57634e487b7160e01b600052602160045260246000fd5b9190529056fea2646970667358221220798c0ef7df17ca4955a6fd92977dd0c1ed459e307ea734e93c05bed62b6200db64736f6c63430008070033",
			"opcodes": "PUSH1 0x80 PUSH1 0x40 MSTORE PUSH1 0x0 DUP1 SLOAD PUSH1 0xFF NOT AND SWAP1 SSTORE CALLVALUE DUP1 ISZERO PUSH2 0x1A JUMPI PUSH1 0x0 DUP1 REVERT JUMPDEST POP PUSH1 0x0 DUP1 SLOAD PUSH2 0x100 PUSH2 0xFF00 NOT SWAP1 SWAP2 AND OR SWAP1 SSTORE PUSH1 0xCA DUP1 PUSH2 0x3A PUSH1 0x0 CODECOPY PUSH1 0x0 RETURN INVALID PUSH1 0x80 PUSH1 0x40 MSTORE CALLVALUE DUP1 ISZERO PUSH1 0xF JUMPI PUSH1 0x0 DUP1 REVERT JUMPDEST POP PUSH1 0x4 CALLDATASIZE LT PUSH1 0x32 JUMPI PUSH1 0x0 CALLDATALOAD PUSH1 0xE0 SHR DUP1 PUSH4 0x697594B4 EQ PUSH1 0x37 JUMPI DUP1 PUSH4 0xFEF21F0F EQ PUSH1 0x48 JUMPI JUMPDEST PUSH1 0x0 DUP1 REVERT JUMPDEST PUSH1 0x0 DUP1 SLOAD PUSH2 0xFF00 NOT AND PUSH2 0x200 OR SWAP1 SSTORE STOP JUMPDEST PUSH1 0x0 SLOAD PUSH1 0x59 SWAP1 PUSH2 0x100 SWAP1 DIV PUSH1 0xFF AND DUP2 JUMP JUMPDEST PUSH1 0x40 MLOAD PUSH1 0x64 SWAP2 SWAP1 PUSH1 0x6D JUMP JUMPDEST PUSH1 0x40 MLOAD DUP1 SWAP2 SUB SWAP1 RETURN JUMPDEST PUSH1 0x20 DUP2 ADD PUSH1 0x3 DUP4 LT PUSH1 0x8E JUMPI PUSH4 0x4E487B71 PUSH1 0xE0 SHL PUSH1 0x0 MSTORE PUSH1 0x21 PUSH1 0x4 MSTORE PUSH1 0x24 PUSH1 0x0 REVERT JUMPDEST SWAP2 SWAP1 MSTORE SWAP1 JUMP INVALID LOG2 PUSH5 0x6970667358 0x22 SLT KECCAK256 PUSH26 0x8C0EF7DF17CA4955A6FD92977DD0C1ED459E307EA734E93C05BE 0xD6 0x2B PUSH3 0xDB64 PUSH20 0x6F6C634300080700330000000000000000000000 "
		},
		"gasEstimates": {
			"creation": {
				"codeDepositCost": "40400",
				"executionCost": "48541",
				"totalCost": "88941"
			},
			"external": {
				"makeSuperRare()": "24322",
				"rarity()": "2362"
			}
		},
		"methodIdentifiers": {
			"makeSuperRare()": "697594b4",
			"rarity()": "fef21f0f"
		}
	},
	"abi": [
		{
			"inputs": [],
			"stateMutability": "nonpayable",
			"type": "constructor"
		},
		{
			"inputs": [],
			"name": "makeSuperRare",
			"outputs": [],
			"stateMutability": "nonpayable",
			"type": "function"
		},
		{
			"inputs": [],
			"name": "rarity",
			"outputs": [
				{
					"internalType": "enum MyEnums.Rarity",
					"name": "",
					"type": "uint8"
				}
			],
			"stateMutability": "view",
			"type": "function"
		}
	]
}