{
	"data": {
		"bytecode": {
			"linkReferences": {},
			"object": "600080556001805460ff1916905560c0604052601060808190526f139bdd0816595d0814995d99585b195960821b60a090815261003f9160029190610052565b5034801561004c57600080fd5b50610126565b82805461005e906100eb565b90600052602060002090601f01602090048101928261008057600085556100c6565b82601f1061009957805160ff19168380011785556100c6565b828001600101855582156100c6579182015b828111156100c65782518255916020019190600101906100ab565b506100d29291506100d6565b5090565b5b808211156100d257600081556001016100d7565b600181811c908216806100ff57607f821691505b6020821081141561012057634e487b7160e01b600052602260045260246000fd5b50919050565b6103b5806101356000396000f3fe608060405234801561001057600080fd5b50600436106100575760003560e01c8063131f5d051461005c578063200d2ed21461007857806354214f691461008d5780636c0ba9ac14610097578063c432d5c11461009f575b600080fd5b61006560005481565b6040519081526020015b60405180910390f35b6100806100bc565b60405161006f91906102c6565b61009561014a565b005b610095610217565b6001546100ac9060ff1681565b604051901515815260200161006f565b600280546100c99061031b565b80601f01602080910402602001604051908101604052809291908181526020018280546100f59061031b565b80156101425780601f1061011757610100808354040283529160200191610142565b820191906000526020600020905b81548152906001019060200180831161012557829003601f168201915b505050505081565b600a60005410610195576001805460ff19168117905560408051808201909152600b8082526a125cc814995d99585b195960aa1b60209092019182526101929160029161022d565b50565b6003600054106101d35760408051808201909152600d8082526c416c6d6f73742074686572652160981b60209092019182526101929160029161022d565b6040805180820190915260178082527f4e6f7065207374696c6c206e6f742072657665616c656400000000000000000060209092019182526101929160029161022d565b60008054908061022683610356565b9190505550565b8280546102399061031b565b90600052602060002090601f01602090048101928261025b57600085556102a1565b82601f1061027457805160ff19168380011785556102a1565b828001600101855582156102a1579182015b828111156102a1578251825591602001919060010190610286565b506102ad9291506102b1565b5090565b5b808211156102ad57600081556001016102b2565b600060208083528351808285015260005b818110156102f3578581018301518582016040015282016102d7565b81811115610305576000604083870101525b50601f01601f1916929092016040019392505050565b600181811c9082168061032f57607f821691505b6020821081141561035057634e487b7160e01b600052602260045260246000fd5b50919050565b600060001982141561037857634e487b7160e01b600052601160045260246000fd5b506001019056fea2646970667358221220ab70c24627b3811dcdb325e36c08454b8452678cc60cca47feebf97733be699364736f6c63430008070033",
			"opcodes": "PUSH1 0x0 DUP1 SSTORE PUSH1 0x1 DUP1 SLOAD PUSH1 0xFF NOT AND SWAP1 SSTORE PUSH1 0xC0 PUSH1 0x40 MSTORE PUSH1 0x10 PUSH1 0x80 DUP2 SWAP1 MSTORE PUSH16 0x139BDD0816595D0814995D99585B1959 PUSH1 0x82 SHL PUSH1 0xA0 SWAP1 DUP2 MSTORE PUSH2 0x3F SWAP2 PUSH1 0x2 SWAP2 SWAP1 PUSH2 0x52 JUMP JUMPDEST POP CALLVALUE DUP1 ISZERO PUSH2 0x4C JUMPI PUSH1 0x0 DUP1 REVERT JUMPDEST POP PUSH2 0x126 JUMP JUMPDEST DUP3 DUP1 SLOAD PUSH2 0x5E SWAP1 PUSH2 0xEB JUMP JUMPDEST SWAP1 PUSH1 0x0 MSTORE PUSH1 0x20 PUSH1 0x0 KECCAK256 SWAP1 PUSH1 0x1F ADD PUSH1 0x20 SWAP1 DIV DUP2 ADD SWAP3 DUP3 PUSH2 0x80 JUMPI PUSH1 0x0 DUP6 SSTORE PUSH2 0xC6 JUMP JUMPDEST DUP3 PUSH1 0x1F LT PUSH2 0x99 JUMPI DUP1 MLOAD PUSH1 0xFF NOT AND DUP4 DUP1 ADD OR DUP6 SSTORE PUSH2 0xC6 JUMP JUMPDEST DUP3 DUP1 ADD PUSH1 0x1 ADD DUP6 SSTORE DUP3 ISZERO PUSH2 0xC6 JUMPI SWAP2 DUP3 ADD JUMPDEST DUP3 DUP2 GT ISZERO PUSH2 0xC6 JUMPI DUP3 MLOAD DUP3 SSTORE SWAP2 PUSH1 0x20 ADD SWAP2 SWAP1 PUSH1 0x1 ADD SWAP1 PUSH2 0xAB JUMP JUMPDEST POP PUSH2 0xD2 SWAP3 SWAP2 POP PUSH2 0xD6 JUMP JUMPDEST POP SWAP1 JUMP JUMPDEST JUMPDEST DUP1 DUP3 GT ISZERO PUSH2 0xD2 JUMPI PUSH1 0x0 DUP2 SSTORE PUSH1 0x1 ADD PUSH2 0xD7 JUMP JUMPDEST PUSH1 0x1 DUP2 DUP2 SHR SWAP1 DUP3 AND DUP1 PUSH2 0xFF JUMPI PUSH1 0x7F DUP3 AND SWAP2 POP JUMPDEST PUSH1 0x20 DUP3 LT DUP2 EQ ISZERO PUSH2 0x120 JUMPI PUSH4 0x4E487B71 PUSH1 0xE0 SHL PUSH1 0x0 MSTORE PUSH1 0x22 PUSH1 0x4 MSTORE PUSH1 0x24 PUSH1 0x0 REVERT JUMPDEST POP SWAP2 SWAP1 POP JUMP JUMPDEST PUSH2 0x3B5 DUP1 PUSH2 0x135 PUSH1 0x0 CODECOPY PUSH1 0x0 RETURN INVALID PUSH1 0x80 PUSH1 0x40 MSTORE CALLVALUE DUP1 ISZERO PUSH2 0x10 JUMPI PUSH1 0x0 DUP1 REVERT JUMPDEST POP PUSH1 0x4 CALLDATASIZE LT PUSH2 0x57 JUMPI PUSH1 0x0 CALLDATALOAD PUSH1 0xE0 SHR DUP1 PUSH4 0x131F5D05 EQ PUSH2 0x5C JUMPI DUP1 PUSH4 0x200D2ED2 EQ PUSH2 0x78 JUMPI DUP1 PUSH4 0x54214F69 EQ PUSH2 0x8D JUMPI DUP1 PUSH4 0x6C0BA9AC EQ PUSH2 0x97 JUMPI DUP1 PUSH4 0xC432D5C1 EQ PUSH2 0x9F JUMPI JUMPDEST PUSH1 0x0 DUP1 REVERT JUMPDEST PUSH2 0x65 PUSH1 0x0 SLOAD DUP2 JUMP JUMPDEST PUSH1 0x40 MLOAD SWAP1 DUP2 MSTORE PUSH1 0x20 ADD JUMPDEST PUSH1 0x40 MLOAD DUP1 SWAP2 SUB SWAP1 RETURN JUMPDEST PUSH2 0x80 PUSH2 0xBC JUMP JUMPDEST PUSH1 0x40 MLOAD PUSH2 0x6F SWAP2 SWAP1 PUSH2 0x2C6 JUMP JUMPDEST PUSH2 0x95 PUSH2 0x14A JUMP JUMPDEST STOP JUMPDEST PUSH2 0x95 PUSH2 0x217 JUMP JUMPDEST PUSH1 0x1 SLOAD PUSH2 0xAC SWAP1 PUSH1 0xFF AND DUP2 JUMP JUMPDEST PUSH1 0x40 MLOAD SWAP1 ISZERO ISZERO DUP2 MSTORE PUSH1 0x20 ADD PUSH2 0x6F JUMP JUMPDEST PUSH1 0x2 DUP1 SLOAD PUSH2 0xC9 SWAP1 PUSH2 0x31B JUMP JUMPDEST DUP1 PUSH1 0x1F ADD PUSH1 0x20 DUP1 SWAP2 DIV MUL PUSH1 0x20 ADD PUSH1 0x40 MLOAD SWAP1 DUP2 ADD PUSH1 0x40 MSTORE DUP1 SWAP3 SWAP2 SWAP1 DUP2 DUP2 MSTORE PUSH1 0x20 ADD DUP3 DUP1 SLOAD PUSH2 0xF5 SWAP1 PUSH2 0x31B JUMP JUMPDEST DUP1 ISZERO PUSH2 0x142 JUMPI DUP1 PUSH1 0x1F LT PUSH2 0x117 JUMPI PUSH2 0x100 DUP1 DUP4 SLOAD DIV MUL DUP4 MSTORE SWAP2 PUSH1 0x20 ADD SWAP2 PUSH2 0x142 JUMP JUMPDEST DUP3 ADD SWAP2 SWAP1 PUSH1 0x0 MSTORE PUSH1 0x20 PUSH1 0x0 KECCAK256 SWAP1 JUMPDEST DUP2 SLOAD DUP2 MSTORE SWAP1 PUSH1 0x1 ADD SWAP1 PUSH1 0x20 ADD DUP1 DUP4 GT PUSH2 0x125 JUMPI DUP3 SWAP1 SUB PUSH1 0x1F AND DUP3 ADD SWAP2 JUMPDEST POP POP POP POP POP DUP2 JUMP JUMPDEST PUSH1 0xA PUSH1 0x0 SLOAD LT PUSH2 0x195 JUMPI PUSH1 0x1 DUP1 SLOAD PUSH1 0xFF NOT AND DUP2 OR SWAP1 SSTORE PUSH1 0x40 DUP1 MLOAD DUP1 DUP3 ADD SWAP1 SWAP2 MSTORE PUSH1 0xB DUP1 DUP3 MSTORE PUSH11 0x125CC814995D99585B1959 PUSH1 0xAA SHL PUSH1 0x20 SWAP1 SWAP3 ADD SWAP2 DUP3 MSTORE PUSH2 0x192 SWAP2 PUSH1 0x2 SWAP2 PUSH2 0x22D JUMP JUMPDEST POP JUMP JUMPDEST PUSH1 0x3 PUSH1 0x0 SLOAD LT PUSH2 0x1D3 JUMPI PUSH1 0x40 DUP1 MLOAD DUP1 DUP3 ADD SWAP1 SWAP2 MSTORE PUSH1 0xD DUP1 DUP3 MSTORE PUSH13 0x416C6D6F737420746865726521 PUSH1 0x98 SHL PUSH1 0x20 SWAP1 SWAP3 ADD SWAP2 DUP3 MSTORE PUSH2 0x192 SWAP2 PUSH1 0x2 SWAP2 PUSH2 0x22D JUMP JUMPDEST PUSH1 0x40 DUP1 MLOAD DUP1 DUP3 ADD SWAP1 SWAP2 MSTORE PUSH1 0x17 DUP1 DUP3 MSTORE PUSH32 0x4E6F7065207374696C6C206E6F742072657665616C6564000000000000000000 PUSH1 0x20 SWAP1 SWAP3 ADD SWAP2 DUP3 MSTORE PUSH2 0x192 SWAP2 PUSH1 0x2 SWAP2 PUSH2 0x22D JUMP JUMPDEST PUSH1 0x0 DUP1 SLOAD SWAP1 DUP1 PUSH2 0x226 DUP4 PUSH2 0x356 JUMP JUMPDEST SWAP2 SWAP1 POP SSTORE POP JUMP JUMPDEST DUP3 DUP1 SLOAD PUSH2 0x239 SWAP1 PUSH2 0x31B JUMP JUMPDEST SWAP1 PUSH1 0x0 MSTORE PUSH1 0x20 PUSH1 0x0 KECCAK256 SWAP1 PUSH1 0x1F ADD PUSH1 0x20 SWAP1 DIV DUP2 ADD SWAP3 DUP3 PUSH2 0x25B JUMPI PUSH1 0x0 DUP6 SSTORE PUSH2 0x2A1 JUMP JUMPDEST DUP3 PUSH1 0x1F LT PUSH2 0x274 JUMPI DUP1 MLOAD PUSH1 0xFF NOT AND DUP4 DUP1 ADD OR DUP6 SSTORE PUSH2 0x2A1 JUMP JUMPDEST DUP3 DUP1 ADD PUSH1 0x1 ADD DUP6 SSTORE DUP3 ISZERO PUSH2 0x2A1 JUMPI SWAP2 DUP3 ADD JUMPDEST DUP3 DUP2 GT ISZERO PUSH2 0x2A1 JUMPI DUP3 MLOAD DUP3 SSTORE SWAP2 PUSH1 0x20 ADD SWAP2 SWAP1 PUSH1 0x1 ADD SWAP1 PUSH2 0x286 JUMP JUMPDEST POP PUSH2 0x2AD SWAP3 SWAP2 POP PUSH2 0x2B1 JUMP JUMPDEST POP SWAP1 JUMP JUMPDEST JUMPDEST DUP1 DUP3 GT ISZERO PUSH2 0x2AD JUMPI PUSH1 0x0 DUP2 SSTORE PUSH1 0x1 ADD PUSH2 0x2B2 JUMP JUMPDEST PUSH1 0x0 PUSH1 0x20 DUP1 DUP4 MSTORE DUP4 MLOAD DUP1 DUP3 DUP6 ADD MSTORE PUSH1 0x0 JUMPDEST DUP2 DUP2 LT ISZERO PUSH2 0x2F3 JUMPI DUP6 DUP2 ADD DUP4 ADD MLOAD DUP6 DUP3 ADD PUSH1 0x40 ADD MSTORE DUP3 ADD PUSH2 0x2D7 JUMP JUMPDEST DUP2 DUP2 GT ISZERO PUSH2 0x305 JUMPI PUSH1 0x0 PUSH1 0x40 DUP4 DUP8 ADD ADD MSTORE JUMPDEST POP PUSH1 0x1F ADD PUSH1 0x1F NOT AND SWAP3 SWAP1 SWAP3 ADD PUSH1 0x40 ADD SWAP4 SWAP3 POP POP POP JUMP JUMPDEST PUSH1 0x1 DUP2 DUP2 SHR SWAP1 DUP3 AND DUP1 PUSH2 0x32F JUMPI PUSH1 0x7F DUP3 AND SWAP2 POP JUMPDEST PUSH1 0x20 DUP3 LT DUP2 EQ ISZERO PUSH2 0x350 JUMPI PUSH4 0x4E487B71 PUSH1 0xE0 SHL PUSH1 0x0 MSTORE PUSH1 0x22 PUSH1 0x4 MSTORE PUSH1 0x24 PUSH1 0x0 REVERT JUMPDEST POP SWAP2 SWAP1 POP JUMP JUMPDEST PUSH1 0x0 PUSH1 0x0 NOT DUP3 EQ ISZERO PUSH2 0x378 JUMPI PUSH4 0x4E487B71 PUSH1 0xE0 SHL PUSH1 0x0 MSTORE PUSH1 0x11 PUSH1 0x4 MSTORE PUSH1 0x24 PUSH1 0x0 REVERT JUMPDEST POP PUSH1 0x1 ADD SWAP1 JUMP INVALID LOG2 PUSH5 0x6970667358 0x22 SLT KECCAK256 0xAB PUSH17 0xC24627B3811DCDB325E36C08454B845267 DUP13 0xC6 0xC 0xCA SELFBALANCE INVALID 0xEB 0xF9 PUSH24 0x33BE699364736F6C63430008070033000000000000000000 "
		},
		"gasEstimates": {
			"creation": {
				"codeDepositCost": "189800",
				"executionCost": "infinite",
				"totalCost": "infinite"
			},
			"external": {
				"addToRevealState()": "24480",
				"isNowRevealed()": "2376",
				"isRevealed()": "infinite",
				"revealState()": "2262",
				"status()": "infinite"
			}
		},
		"methodIdentifiers": {
			"addToRevealState()": "6c0ba9ac",
			"isNowRevealed()": "c432d5c1",
			"isRevealed()": "54214f69",
			"revealState()": "131f5d05",
			"status()": "200d2ed2"
		}
	},
	"abi": [
		{
			"inputs": [],
			"name": "addToRevealState",
			"outputs": [],
			"stateMutability": "nonpayable",
			"type": "function"
		},
		{
			"inputs": [],
			"name": "isNowRevealed",
			"outputs": [
				{
					"internalType": "bool",
					"name": "",
					"type": "bool"
				}
			],
			"stateMutability": "view",
			"type": "function"
		},
		{
			"inputs": [],
			"name": "isRevealed",
			"outputs": [],
			"stateMutability": "nonpayable",
			"type": "function"
		},
		{
			"inputs": [],
			"name": "revealState",
			"outputs": [
				{
					"internalType": "uint256",
					"name": "",
					"type": "uint256"
				}
			],
			"stateMutability": "view",
			"type": "function"
		},
		{
			"inputs": [],
			"name": "status",
			"outputs": [
				{
					"internalType": "string",
					"name": "",
					"type": "string"
				}
			],
			"stateMutability": "view",
			"type": "function"
		}
	]
}