{
	"data": {
		"bytecode": {
			"linkReferences": {},
			"object": "608060405234801561001057600080fd5b5060e58061001f6000396000f3fe6080604052348015600f57600080fd5b506004361060325760003560e01c80630dd31794146037578063e7c898ef14603f575b600080fd5b603d6045565b005b603d606d565b60005b6005811015606a578060031415605b5750565b806063816087565b9150506048565b50565b60005b600a811015606a57806080816087565b9150506070565b600060001982141560a857634e487b7160e01b600052601160045260246000fd5b506001019056fea26469706673582212207539657970c95f98b297300ed912a90ea7104110f3c2702bb3fc3d104211920364736f6c63430008070033",
			"opcodes": "PUSH1 0x80 PUSH1 0x40 MSTORE CALLVALUE DUP1 ISZERO PUSH2 0x10 JUMPI PUSH1 0x0 DUP1 REVERT JUMPDEST POP PUSH1 0xE5 DUP1 PUSH2 0x1F PUSH1 0x0 CODECOPY PUSH1 0x0 RETURN INVALID PUSH1 0x80 PUSH1 0x40 MSTORE CALLVALUE DUP1 ISZERO PUSH1 0xF JUMPI PUSH1 0x0 DUP1 REVERT JUMPDEST POP PUSH1 0x4 CALLDATASIZE LT PUSH1 0x32 JUMPI PUSH1 0x0 CALLDATALOAD PUSH1 0xE0 SHR DUP1 PUSH4 0xDD31794 EQ PUSH1 0x37 JUMPI DUP1 PUSH4 0xE7C898EF EQ PUSH1 0x3F JUMPI JUMPDEST PUSH1 0x0 DUP1 REVERT JUMPDEST PUSH1 0x3D PUSH1 0x45 JUMP JUMPDEST STOP JUMPDEST PUSH1 0x3D PUSH1 0x6D JUMP JUMPDEST PUSH1 0x0 JUMPDEST PUSH1 0x5 DUP2 LT ISZERO PUSH1 0x6A JUMPI DUP1 PUSH1 0x3 EQ ISZERO PUSH1 0x5B JUMPI POP JUMP JUMPDEST DUP1 PUSH1 0x63 DUP2 PUSH1 0x87 JUMP JUMPDEST SWAP2 POP POP PUSH1 0x48 JUMP JUMPDEST POP JUMP JUMPDEST PUSH1 0x0 JUMPDEST PUSH1 0xA DUP2 LT ISZERO PUSH1 0x6A JUMPI DUP1 PUSH1 0x80 DUP2 PUSH1 0x87 JUMP JUMPDEST SWAP2 POP POP PUSH1 0x70 JUMP JUMPDEST PUSH1 0x0 PUSH1 0x0 NOT DUP3 EQ ISZERO PUSH1 0xA8 JUMPI PUSH4 0x4E487B71 PUSH1 0xE0 SHL PUSH1 0x0 MSTORE PUSH1 0x11 PUSH1 0x4 MSTORE PUSH1 0x24 PUSH1 0x0 REVERT JUMPDEST POP PUSH1 0x1 ADD SWAP1 JUMP INVALID LOG2 PUSH5 0x6970667358 0x22 SLT KECCAK256 PUSH22 0x39657970C95F98B297300ED912A90EA7104110F3C270 0x2B 0xB3 0xFC RETURNDATASIZE LT TIMESTAMP GT SWAP3 SUB PUSH5 0x736F6C6343 STOP ADDMOD SMOD STOP CALLER "
		},
		"gasEstimates": {
			"creation": {
				"codeDepositCost": "45800",
				"executionCost": "99",
				"totalCost": "45899"
			},
			"external": {
				"myLoop()": "infinite",
				"whileLoop()": "infinite"
			}
		},
		"methodIdentifiers": {
			"myLoop()": "0dd31794",
			"whileLoop()": "e7c898ef"
		}
	},
	"abi": [
		{
			"inputs": [],
			"name": "myLoop",
			"outputs": [],
			"stateMutability": "pure",
			"type": "function"
		},
		{
			"inputs": [],
			"name": "whileLoop",
			"outputs": [],
			"stateMutability": "pure",
			"type": "function"
		}
	]
}